:020000022000DC
:1070000000000420757302005D7302005F730200CC
:1070100061730200637302006573020000000000E8
:107020000000000000000000000000006773020084
:1070300069730200000000006B7302006D730200B0
:107040005DEC02006F730200FDF90200F10803001D
:107050006F7302006F730200F5F802006F73020095
:107060006F7302006F7302006F7302006F73020090
:107070006F730200F9FD02006F7302006F7302006C
:107080006F730200499802006F7302006F73020071
:107090006F7302006F730200A1F603006F730200AA
:1070A0006F7302006F7302006F7302006F73020050
:1070B0006F7302006F730200000000000000000008
:1070C0006F7302006F7302006F7302006F73020030
:1070D0006F7302006F7302006F7302006F73020020
:1070E0006F7302006F730200AD3E040000000000E9
:1070F000000000006F730200000000006F730200C8
:10710000000000000000000000000000000000007F
:10711000000000000000000000000000000000006F
:10712000000000000000000000000000000000005F
:10713000000000000000000000000000000000004F
:10714000000000000000000000000000000000003F
:10715000000000000000000000000000000000002F
:10716000000000000000000000000000000000001F
:10717000000000000000000000000000000000000F
:1071800000000000000000000000000000000000FF
:1071900000000000000000000000000000000000EF
:1071A00000000000000000000000000000000000DF
:1071B00000000000000000000000000000000000CF
:1071C00000000000000000000000000000000000BF
:1071D00000000000000000000000000000000000AF
:1071E000000000000000000000000000000000009F
:1071F000000000000000000000000000000000008F
:10720000354936480A1A02D0072291438D4634493F
:1072100034480A1A06D00722914381F309880222D2
:1072200082F3148830483149314A00F044F831483B
:107230003149324A00F03FF831483249324A00F0D1
:107240003AF832483249334A00F035F83248334987
:10725000334A00F030F833483349344A00F02BF811
:1072600033483449344A00F026F83448344900227F
:1072700000F02CF833483449002200F027F8334856
:107280003349091A082902DB002202604160314AB1
:1072900090471F481F49884205D00268043003B454
:1072A000904703BCF7E700208646EC46002000210B
:1072B000294A9047FEE7884207D0521A05D0037842
:1072C00001300B700131013AF9D17047884202D088
:1072D00002700130FAE770470000042000E003204C
:1072E00000000420000004202C050500242C0020B0
:1072F000642D0020D0730200D0730200CC7B040008
:107300002C050500242C0020242C0020987D04004E
:10731000987D0400987D0400987D0400987D040009
:10732000987D0400987D0400987D04002C050500DC
:107330006C060500642D0020642D0020642D0020C3
:10734000D07E0020D07E0020D07E0020D07E002085
:10735000D09E00209D73020095470300FEE7FEE7E4
:10736000FEE7FEE7FEE7FEE7FEE7FEE7FEE7FEE7F5
:1073700000F002B8FFF7FCBF0F484FF00701884349
:1073800085460E4880470E48016841F4700101604F
:10739000BFF34F8FBFF36F8FFFF732BF09480A4922
:1073A0000A4A884207D0521A05D0037801300B7080
:1073B0000131013AF9D1704700000420FD4D03006E
:1073C00088ED00E0847D0400102C0020242C002097
:1073D00000B583B00190019B1B68184600F04CF883
:1073E0000346002B04D10B494FF4F6700DF0BEF9A3
:1073F000019B1B681F2B02D84FF0A04306E0019BA6
:107400001B6803F01F02019B1A60034B184603B070
:107410005DF804FB987D04000003005000B585B0C2
:1074200001900B468DF8033001AB1846FFF7D0FFF3
:107430000390019A039B02F5E07253F82230019AFF
:1074400023F44031039B02F5E07243F82210019AC5
:10745000039B02F5E07253F822309DF803201204DA
:107460001146019A1943039B02F5E07243F822107A
:1074700000BF05B05DF804FB84B00190019B5B097F
:10748000029300230393029B002B03D0029B012B4A
:1074900004D007E04FF0FF33039303E04FF6FF7390
:1074A000039300BF019B03F01F030193039A019B09
:1074B00022FA03F303F00103002B14BF012300237E
:1074C000DBB2184604B0704700B583B00190019B51
:1074D000032B04D8019809F023FC034600E00023A5
:1074E000184603B05DF804FB00B587B003460A46B2
:1074F0008DF8073013468DF8063000238DF81730CD
:10750000002304939DF80730184609F051FC0490BD
:10751000049B032B61D89DF80630022B52D0022B1E
:107520005EDC002B31D0012B5AD13649049A134628
:107530005B0013440B441B788DF817303149049AD3
:1075400013465B0013440B4401331B78002B0ED011
:107550002D4B2E4A4FF48041184601F02BFC03902E
:10756000039B002B03D1294A9DF80730137025494E
:10757000049A13465B0013440B4402331978244ADF
:10758000049B13440A461A702AE01F4B184601F068
:1075900049FC1F4A049B134419781A48049A13465D
:1075A0005B001344034402331B78994217D11549F9
:1075B000049A13465B0013440B4402331B788DF886
:1075C00017300CE00F49049A13465B0013440B4438
:1075D00001331B788DF8173002E000BF00E000BFD8
:1075E0009DF81730002B09D00A4B1B68002B05D0E3
:1075F000084B1B689DF817201046984700BF07B03E
:107600005DF804FBB42D0020C02D0020E02D0020EB
:10761000E42D0020B02D002000B583B00190019B27
:107620001B7802211846FFF75FFF00BF03B05DF82B
:1076300004FB000000B583B00C4B1B78002B0FD06F
:107640000023019308E0019B022B02D0019809F06E
:10765000F3FA019B01330193019B032BF3D901E062
:1076600009F004FB00BF03B05DF804FB6C2D0020A3
:107670002DE9D04F92B003468DF83F30002311938F
:1076800000231093CC4B1B78002B04D0CA4A002354
:107690001370FFF7CFFF9DF83F30172B00F23F82AA
:1076A00001A252F823F000BF0977020021770200FF
:1076B00021770200BD77020059780200D5780200D8
:1076C000697902008979020099790200C57902007E
:1076D000E3790200017A02001F7A02002D7A02008B
:1076E0002D7A02002D7A02002D7A02002D7A0200F6
:1076F000C17A0200CF7A0200E37A0200F77A020030
:10770000117B0200117B0200FFF794FFAB4B184680
:1077100001F088FB1190AA4A9DF83F301370FFE1F9
:10772000002009F041FA0346002B0DD0002009F09B
:1077300083FA9DF83F30022B02D14FF4E16301E060
:107740004FF47A6310930BE0002009F05BFA9DF888
:107750003F30022B01D1C82301E04FF4C8731093CE
:10776000974A9DF83F301370944C109B0022009371
:1077700001924FF000024FF00003DDE90067394647
:10778000CB03314643EA51433146CA0312F57A71BD
:10779000029143F1000303934FF4FA624FF00003A8
:1077A000DDE9020119F06DF902460B46134600228D
:1077B0001946204601F0FEFA1190B1E1002009F0CF
:1077C000F3F90346002B0DD0002009F035FA9DF89F
:1077D0003F30032B02D14FF4487301E04FF47A633A
:1077E00010930BE0002009F00DFA9DF83F30032BB9
:1077F00001D1C82301E04FF4C8731093704A9DF87B
:107800003F3013706D4C109B0022049305924FF093
:1078100000024FF00003DDE904673946CB0331462F
:1078200043EA51433146CA0312F57A71069143F196
:10783000000307934FF4FA624FF00003DDE90601FD
:1078400019F01FF902460B4613460022194620463E
:1078500001F0B0FA119063E1002009F0A5F90346A8
:10786000002B06D0002009F0E7F94FF47A6310935B
:1078700005E0002009F0C6F94FF4C8731093504A90
:107880009DF83F3013704D4C109B00229A46934652
:107890004FF000024FF000034FEACB3343EA5A4364
:1078A0004FEACA3212F57A71089143F10003099345
:1078B0004FF4FA624FF00003DDE9080119F0E1F836
:1078C00002460B46134600221946204601F072FA82
:1078D000119025E1002009F067F90346002B0CD038
:1078E000002009F0A9F99DF83F30052B01D1C823EC
:1078F00001E04FF47A6310930BE0002009F082F965
:107900009DF83F30052B01D1C82301E04FF4C87327
:1079100010932B4A9DF83F301370284C109B002287
:10792000984691464FF000024FF000034FEAC933EA
:1079300043EA58434FEAC83212F57A710A9143F18B
:1079400000030B934FF4FA624FF00003DDE90A01E4
:1079500019F097F802460B461346002219462046B6
:1079600001F028FA1190DBE0002009F0A5F9144A93
:107970009DF83F301370114B002240F266611846AB
:1079800001F018FA1190CBE0002009F03BF90C4A05
:107990009DF83F301370C3E0074B01221A7001209D
:1079A00009F08AF9054B002240F26661184601F0A1
:1079B00001FA1190B4E000BF652D0020702D002069
:1079C000642D0020594B01221A70012009F074F92E
:1079D000574B00224FF40051184601F0EBF911907B
:1079E0009EE0524B01221A70012009F065F9504BBC
:1079F000002240F26661184601F0DCF911908FE038
:107A00004A4B01221A70012009F056F9484B002216
:107A10004FF40051184601F0CDF9119080E009F0C3
:107A200038F9444A9DF83F30137079E0424B1846CC
:107A300001F0F8F911909DF83F30C3F11103109354
:107A4000109B002B35D0119B002B32D1109B012BAA
:107A500028D9394C109B9BB21A46C82302FB03F36A
:107A6000DA171E4617464FF000024FF00003FB03E3
:107A700043EA5643F20312F57A710C9143F1000385
:107A80000D934FF4FA624FF00003DDE90C0118F09A
:107A9000F8FF02460B46134600221946204601F025
:107AA00089F91190022009F0ADF8244B01221A70D7
:107AB00036E0022009F0C0F8204B00221A702FE0B7
:107AC000FFF7B8FD1B4A9DF83F30137028E0FFF721
:107AD000B1FD002009F096F8164A9DF83F3013706A
:107AE0001EE0FFF7A7FD012009F08CF8114A9DF870
:107AF0003F30137014E0FFF79DFD002009F082F87D
:107B0000012009F07FF80B4A9DF83F30137007E021
:107B100009F0BFF8074A9DF83F30137000E000BF3E
:107B2000119B184612B0BDE8D08F00BF652D002014
:107B3000702D0020642D0020902D00206C2D002041
:107B400000B583B00190074B1B6803F00103002BC5
:107B500004D0054B1B781846FFF78AFD00BF03B021
:107B60005DF804FB682D0020642D002000B583B073
:107B70000190022009F0A0F800BF03B05DF804FBFB
:107B800000B585B003468DF8073000230393084BFA
:107B90001B6803F00103002B05D09DF80730184641
:107BA000FFF766FD0390039B184605B05DF804FBE4
:107BB000682D002000B585B001900091002303934B
:107BC0002A4A019B13602A4A009B1360019B03F021
:107BD0000203002B2AD00023029308E00122012196
:107BE000029800F055F80390029B01330293029B28
:107BF000032B02D8039B002BF0D0039B002B06D154
:107C000040F2333204211B4800F0F4FB0390039B45
:107C1000002B02D100F076FC0390039B002B05D1D2
:107C2000154A0021154801F091F80390019B03F0DB
:107C30000103002B14D0012009F0F0F8039B002B66
:107C400005D10F4A00210F4801F080F80390039BF3
:107C5000002B05D10C4A01210C4801F077F8039064
:107C6000039B184605B05DF804FB00BF682D00209B
:107C7000B02D0020C47D040019760200C07D0400F0
:107C8000417B0200B87D04006D7B0200BC7D0400D6
:107C900084B001900B468DF8033013468DF8023006
:107CA00000230393019B032B3CD89DF80230012B4A
:107CB0000BD19DF80330012B04D1019BDBB20E33B5
:107CC000DBB200E000238DF802309DF80330022B78
:107CD0000FD0022B23DC002B16D0012B1FD114490F
:107CE000019A13465B0013440B449DF802201A705E
:107CF0001AE00F49019A13465B0013440B44013309
:107D00009DF802201A700FE00949019A13465B00A2
:107D100013440B4402339DF802201A7004E0072339
:107D2000039301E007230393039B184604B07047B5
:107D3000B42D002000B585B001900B468DF80330BE
:107D4000019B032B14D89DF80330002B01D0032393
:107D500000E000238DF80F30019809F049F8024641
:107D60009DF80F3019461046FFF758FB002300E03E
:107D70000623184605B05DF804FB00B583B00190FA
:107D800001210198FFF7D6FF0346184603B05DF8BE
:107D900004FB00B583B0012200210020FFF778FF2B
:107DA0000190019B002B04D0019B072B01D0019B6C
:107DB0001CE0072202210120FFF76AFF0190019BCE
:107DC000002B04D0019B072B01D0019B0EE0042265
:107DD00002210020FFF75CFF0190019B002B04D0E3
:107DE000019B072B01D0019B00E00023184603B044
:107DF0005DF804FB00B583B0012202210020FFF7EB
:107E000047FF0190019B002B04D0019B072B01D061
:107E1000019B1CE0072202210120FFF739FF01909E
:107E2000019B002B04D0019B072B01D0019B0EE08E
:107E30000A2200210020FFF72BFF0190019B002B5D
:107E400004D0019B072B01D0019B00E000231846C2
:107E500003B05DF804FB00B583B001900120FFF78B
:107E600033FB0346002B03D0019B02221A700CE067
:107E70000020FFF729FB0346002B03D0019B0B22B8
:107E80001A7002E0019B00221A7000BF03B05DF877
:107E900004FB00B583B00020FFF76FFF0190019B4A
:107EA000002B04D0019B062B01D0019B0CE001208C
:107EB000FFF763FF0190019B002B04D0019B062B71
:107EC00001D0019B00E00023184603B05DF804FBDD
:107ED00000B585B001900091019B1B88102B02D04A
:107EE000112B18D02FE01A4B1B68002B0DD1FFF778
:107EF00050FF0390039B002B07D0164B1B68002BF1
:107F000003D0144B1B6803989847114B1B6801332F
:107F10000F4A136017E00E4B1B68013B0C4A1360BD
:107F20000B4B1B68002B0DD1FFF764FF0390039BE5
:107F3000002B07D0074B1B68002B03D0054B1B6899
:107F40000398984700BF00BF05B05DF804FB00BF71
:107F5000EC2D0020E82D002000B585B001900091A7
:107F6000002303930A4A019B1360009B002B02D05D
:107F70000098FFF770FF074B1B68002B02D1FFF73B
:107F800039FF0390039B184605B05DF804FB00BF62
:107F9000E82D0020EC2D002084B003468DF807303A
:107FA0009DF807305B08DBB21A460D4B9B5C8DF8E1
:107FB0000F309DF8073003F00103002B04D09DF82B
:107FC0000F301B09DBB204E09DF80F3003F00F0304
:107FD000DBB28DF80E309DF80E30184604B07047B5
:107FE000282E002084B003460A468DF80730134639
:107FF0008DF806309DF8073003F00103002B01D007
:108000000F2300E0F0238DF80F309DF8073003F0C8
:108010000103002B04D09DF806301B01DBB201E008
:108020009DF806308DF80E309DF807305B08DBB206
:108030001A46114B9A5C9DF807305B08DBB2194673
:108040009DF80F301340DAB20B4B5A549DF80730AD
:108050005B08DBB21A46084B9A5C9DF807305B0858
:10806000DBB219469DF80E301343DAB2024B5A5474
:1080700000BF04B0704700BF282E002000B585B0B7
:1080800003468DF807300023039310E00F4B1A6866
:10809000039BDB0013440293029B1B789DF807208F
:1080A0009A4201D1029B0DE0039B01330393084BDD
:1080B0001B781A46039B9342E8DB064988200CF0A4
:1080C00055FB0023184605B05DF804FBF02D002099
:1080D000F42D0020F07D040000B585B003460A466B
:1080E0008DF8073013468DF806309DF80730184696
:1080F000FFF7C4FF0390039B002B0BD0039B5B682F
:10810000002B07D0039B5B689DF806109DF80720A5
:108110001046984700BF05B05DF804FB2DE9F04F0D
:1081200087B003460A468DF80F3013468DF80E309F
:108130009DF80F301846FFF72FFF0346042B00F27F
:10814000C28001A252F823F05D810200D1810200B9
:10815000ED8102001D820200338202009DF80E3084
:10816000002B00F0AD809DF80F3001211846FFF77D
:1081700039FF00238DF817300DF11703184600F072
:108180001BFF9DF80F104FF001024FF00003A1F10B
:108190002004C1F1200003FA01F702FA04F4274396
:1081A00022FA00F0074302FA01F6494BD3E9002313
:1081B00046EA020100913B430193454BDDE9001281
:1081C000C3E900129DF81730184600F00BFF77E066
:1081D0009DF80E30002B01D0022200E000229DF815
:1081E0000F3011461846FFF7FDFE6CE09DF80E308B
:1081F000002B0CD09DF80F3003211846FFF7F2FE3C
:108200009DF80F3001211846FFF766FF5BE09DF8EF
:108210000F3001211846FFF7E5FE54E09DF80E30BF
:10822000002B4FD19DF80F3004211846FFF7DAFEDE
:1082300048E09DF80E30002B06D09DF80F3003214A
:108240001846FFF7CFFE3EE09DF80F30002118469C
:10825000FFF7C8FE9DF80F3000211846FFF73CFFDE
:1082600000238DF816300DF11603184600F0A4FE19
:108270009DF80F104FF001024FF00003A1F120060E
:10828000C1F1200003FA01F502FA06F6354322FA9D
:1082900000F0054302FA01F46FEA04086FEA0509E9
:1082A0000B4BD3E9002308EA020A09EA030B084B47
:1082B000C3E900AB9DF81630184600F093FE02E0CB
:1082C00000BF00E000BF00BF07B0BDE8F08F00BFF7
:1082D000202E002000B583B00648074B1B685B08C2
:1082E0000022194600F066FD019000BF03B05DF862
:1082F00004FB00BF002E0020F82D002000B587B041
:1083000001900023059328E01C4B1A68059BDB00B5
:1083100013440493049B1B78184607F03BFA03466A
:108320008DF80F30049B5B78012B0CBF01230023D9
:10833000DBB21A469DF80F309A420CBF012300238E
:108340008DF80E30049B1B789DF80E2011461846C0
:10835000FFF7E4FE059B01330593094B1B781A4692
:10836000059B9342D0DB074BD3E90023134301D095
:10837000FFF7B0FF00BF07B05DF804FBF02D002051
:10838000F42D0020202E002000B585B001900B4672
:108390008DF80330019BDBB21846FFF76FFE0390A8
:1083A000039B1B78184607F0F5F903468DF80B3050
:1083B000039B5B78012B0CBF01230023DBB21A4621
:1083C0009DF80B309A420CBF012300238DF80A3030
:1083D0009DF80A30002B06D0054BD3E90023134348
:1083E00001D1FFF777FF00BF05B05DF804FB00BFC8
:1083F000202E002000B58BB003900B4601928DF823
:108400000B30019B092B01D8072367E007F0B6F872
:10841000034683F00103DBB2002B09D007F04AF8D2
:108420000990099B0893089B002B01D0089B55E0FD
:108430002C4A039B13602C4A9DF80B3013702B4A77
:10844000019B136020220021294818F0B7FC29491C
:108450004FF000024FF00003C1E9002331E09DF826
:108460000B30DB00039A1344079303238DF8143079
:1084700000238DF815309DF816306FF300038DF84A
:1084800016309DF816306FF341038DF816309DF8C5
:1084900016306FF382038DF81630079B9B788DF8AA
:1084A0001530079B1B78184605AB134A194607F091
:1084B00071F80990099B0693069B002B01D0069B3F
:1084C0000CE09DF80B305A1E8DF80B20002BC6D106
:1084D0000A4A00210A4800F039FC034618460BB04E
:1084E0005DF804FBF02D0020F42D0020F82D002075
:1084F000282E0020202E002089830200FD82020009
:10850000687E040000B583B0114B1B68002B04D1BA
:10851000104940F235100CF029F9002301930CE0CA
:108520000B4B1A68019BDB0013441B780121184692
:1085300007F0ACF8019B01330193074B1B781A46F7
:10854000019B9342ECD30023184603B05DF804FB73
:10855000F02D0020F07D0400F42D002086B0039063
:108560000291019201238DF817309DF81730204AAF
:10857000039B13601E4A029B53601D4A019B93603C
:10858000039B44F20102934212D0039B44F2020285
:10859000934220D1019B164AD360154BDB681B68C0
:1085A000134A9361124BDB685B68114AD36112E096
:1085B000019B0F4A13610E4B1B699B680C4A536168
:1085C0000B4B1B691B680A4A9361094B1B695B686B
:1085D000074AD36100BF72B600BF00BF9DF81730D5
:1085E000DBB2002BFAD162B600BF00BF06B0704705
:1085F000482E002000B583B002900091019244F211
:10860000010071466A4600F003F803B000BD00BFE8
:1086100030B58BB007900691059272B600BF09F095
:108620009BFB00BF09F056F90346002BFAD1079BCC
:1086300044F2020293422FD0079B44F2020293427B
:1086400069D8079B44F20102934237D0079B44F25A
:10865000010293425FD8079B012B05D0079B41F293
:10866000010293420CD056E0394A3A4BD31ADB0848
:108670001B0443F001033849184609F0A1F857E0FC
:10868000334A344BD31ADB081B0443F0010333494C
:10869000184609F095F84BE0059B09932C4A2D4BA1
:1086A000D31ADB081B0443F00100099B5B681A46E0
:1086B000099B1B682A4909F0A2F839E0059B089339
:1086C000234A244BD31ADB081B0443F00104089B04
:1086D0009D68089B9B68184605F020FE03461846D7
:1086E000089B5B681946089B1B68069A02920193D7
:1086F000009103462A461B49204609F0C2F8144A55
:10870000144BD31ADB081B0443F001031649184627
:1087100009F056F80CE00E4A0E4BD31ADB081B0486
:1087200043F00103069A1149184609F057F800BFB3
:108730000F4B1B6803F00103002B00D000BE059A0D
:1087400006990798FFF70AFF00BF0BB030BD00BFC6
:10875000B47C04007C7C04006C7E04008C7E0400ED
:10876000B07E0400CC7E0400F47E0400087F040088
:10877000F0ED00E02DE9F04383B0144801F049F832
:10878000034600221C461546114BD3E9002314EB87
:10879000020845EB0309CDE900890E4BD3E900231C
:1087A000DDE90001904271EB030307D2DDE900230C
:1087B00012F1807643F10007CDE90067DDE900237F
:1087C0001046194603B0BDE8F08300BF242C0020FA
:1087D000702E0020782E002088B001900091019B1F
:1087E0000793009B0693079BD3E90223CDE904235B
:1087F000069BD3E90223CDE90223DDE90423DDE969
:108800000201904271EB03032CBF01230023DBB272
:10881000184608B070470000F0B585B00190019B84
:108820005B69002B03D12B49A2200BF09FFF002393
:108830008DF80F30284B1B78002B45D0019B002B67
:1088400042D0019B1B7FDBB2002B3DD0FFF792FF94
:10885000019BD3E90223904271EB03032CD3019BCC
:108860001B69002B02D1019B00221A77019B5B69D7
:10887000019A926910469847019B1B69002B23D0EF
:10888000019B1B7FDBB2002B1ED0019BD3E902238F
:108890000199096900200C460546161943EB0507A6
:1088A000019BC3E90267019B19460C4805F090FC47
:1088B00001238DF80F3007E0019B1946074805F0AA
:1088C00087FC01238DF80F309DF80F30184605B056
:1088D000F0BD00BF2C7F04006C2E0020A87F040098
:1088E000F0B589B0019000910D230793009B002201
:1088F0001A70019BD3E90245FFF73CFF02460B4685
:10890000A61A65EB0307CDE90467DDE90423012A14
:1089100073F100031BDB049BB3F5350F05D300F0A7
:10892000A9FA0246154B134403E0019BD3E9022345
:10893000134603934FF49603039A0021104800F066
:108940005BFE0790079B002B05D1012313E000215C
:108950000B4800F029FF079B0D2B07D10198FFF76B
:108960005BFF03461A46009B1A7003E00549F52099
:108970000BF0FCFE0023184609B0F0BDFFFFB40069
:10898000242C00202C7F040000B583B0044805F09F
:1089900059FC0190019B184603B05DF804FB00BF31
:1089A000A87F040000B583B0044805F06DFC019079
:1089B000019B184603B05DF804FB00BFA87F0400CC
:1089C00000B583B0FFF7E0FF0190019B002B02D0C0
:1089D000019B00221A77019B002BF3D100BF00BF3F
:1089E00003B05DF804FB0000054BD3E9002312F14E
:1089F000807043F10001024BC3E9000100BF7047E2
:108A0000702E002010B582B00190124B1B68002B15
:108A10001DD0019800F0FDFE04460021019800F0F1
:108A2000E9FE03461946204600F018FA0346B3F55E
:108A3000960F04D308494FF495700BF097FE054B41
:108A40001B681846FFF7E8FE024B00221A6000BFC1
:108A500002B010BD682E00202C7F040000B583B04A
:108A60000190FFF787FE02460B460349C1E9002348
:108A700000BF03B05DF804FB782E002000B585B080
:108A80000190FFF78FFF039000238DF80B30039BBD
:108A9000002B48D02B4B1B68002B03D101238DF8F2
:108AA0000B3019E0039BD3E90201264B1B68D3E985
:108AB0000223904271EB03030ED201238DF80B3099
:108AC000204B1B681B7FDBB2002B05D01D4B1B68A6
:108AD00019461D4805F07CFB9DF80B30002B2AD071
:108AE000FFF752FF03900DF10A0319460398FFF7B1
:108AF000F7FE0346002B12D0124B1B68002B02D14D
:108B0000019800F085FC0F4A039B13609DF80A3022
:108B100083F00103DBB2002BB3D000BF0EE0094BA2
:108B200000221A60ADE7074B1B68002B05D10198A6
:108B300000F084FC01E000BF00E000BF00BF05B012
:108B40005DF804FB682E0020A87F040000B587B004
:108B500001902C4A03AB1946104603F0BEF805906D
:108B600048E0059B1B78022B2ED0022B32DC002B19
:108B700002D0012B14D02DE0059B5B681B7FDBB27C
:108B800083F00103DBB2002B26D0059B5B6801223A
:108B90001A77059B5B6819461B4805F019FB1BE01B
:108BA000059B5A68194B1B689A4203D1174B002248
:108BB0001A6012E0059B5B681946134805F078FBC4
:108BC00003468DF8133008E0FFF7FAFE104B012240
:108BD0001A7002E000BF00E000BF0A4A03AB19466A
:108BE000104603F093F8074A03AB1946104603F00A
:108BF00074F80590059B002BB3D100BF00BF07B0F0
:108C00005DF804FBD82E0020A87F0400682E002009
:108C10006C2E002000B583B00190019800F0B7FDE4
:108C20000346002B01D0FFF7DFFE0021019800F082
:108C3000CCFD0346002B02D00198FFF7E3FE012193
:108C4000019800F0C2FD0346002B02D00198FFF707
:108C500005FF0198FFF77AFF0198FFF70FFF00BFAC
:108C600003B05DF804FB000008B5024800F0DEFD2B
:108C700000BF08BD242C002000B585B0034600913C
:108C80008DF80730114A02AB1946104602F0F8FF82
:108C90000390039B002B13D0039B9DF807201A70B1
:108CA000039B009A5A60094A02AB1946104603F02A
:108CB00000F80346002B01D0FFF7D6FF002300E0A9
:108CC0000423184605B05DF804FB00BFD82E002031
:108CD00000B583B0164B1B68009316480823582232
:108CE000154902F086FF0190019B002B01D0019BEA
:108CF00019E06B46114A1946114800F00BFB019030
:108D0000019B002B01D0019B0DE001210C4800F0DC
:108D10002DFD01230B4A0121094800F0A5FB0A4B58
:108D200001221A70019B184603B05DF804FB00BFD6
:108D3000A47F0400D82E0020802E0020158C020075
:108D4000242C0020FFFF7F006C2E002000B587B090
:108D500003900B4601928DF80B30039B002B04D13E
:108D6000134940F22E200BF001FD019B002B04D192
:108D70000F4940F22F200BF0F9FC019B002B01D191
:108D8000072310E0039B1B680593059B019A5A611A
:108D90009DF80B30012B0CBF01230023DBB21A46D8
:108DA000059B1A610023184607B05DF804FB00BF5D
:108DB0002C7F0400F0B587B0039002910192039BD1
:108DC000002B04D1164940F23E200BF0CFFC039B50
:108DD0000593059B1B7FDBB2002B01D000231CE019
:108DE000059B019A9A61FFF7C5FC02460B46029962
:108DF00000200C460546161943EB0507059BC3E901
:108E00000267059B1B69002B02D0059B029A1A6121
:108E100005990020FFF730FF0346184607B0F0BD64
:108E20002C7F040000B585B00190019B002B04D17C
:108E300009494FF415700BF099FC019B0393039BB8
:108E400000221A7703990120FFF716FF0346184600
:108E500005B05DF804FB00BF2C7F040082B00190D8
:108E60000091019A009BD31A23F07F43184602B069
:108E70007047000008B5034800F0CBFC03461846D5
:108E800008BD00BF242C002082B003468DF80730B7
:108E90009DF90730002B09DB0B4A9DF9073013447D
:108EA00093F80033DBB25B09DBB20AE0074A9DF8B6
:108EB000073003F00F03043B13441B7EDBB25B0956
:108EC000DBB2184602B0704700E100E000ED00E0C0
:108ED00082B0EFF310830093009B019372B600BF42
:108EE000019B184602B0704762B600BF00BF7047D2
:108EF00000B585B00190FFF7EBFF0390164B9B6820
:108F0000002B1BD1144B01229A60144BD3F8802004
:108F1000134B1340104A1360104B114AC3F88020C2
:108F20000E4BD3F884300C4A53600C4B4FF0FF3299
:108F3000C3F88420019B00221A7002E0019B0122E9
:108F40001A70039B002B01D1FFF7CEFF00231846B8
:108F500005B05DF804FB00BFEC2E002000E100E04E
:108F6000FC06FFBD00B585B003468DF80730104BF9
:108F70009B68002B16D09DF80730002B12D1FFF70D
:108F8000A7FF03900B4A0A4B1B681360094A084B62
:108F90005B685360064B00229A60039B002B01D153
:108FA000FFF7A2FF0023184605B05DF804FB00BFE1
:108FB000EC2E002000E100E000B583B0019000F04D
:108FC0002BF80346012B03D0054943200BF0CEFBC1
:108FD0000198FFF78DFF00BF03B05DF804FB00BFF1
:108FE000B47F040000B583B003468DF8073000F06D
:108FF00013F80346012B03D0064951200BF0B6FBB2
:109000009DF807301846FFF7ADFF00BF03B05DF8CD
:1090100004FB00BFB47F040084B0EFF30583019329
:10902000019BC3F308030393039B002B0DD1EFF3C4
:1090300014830093009B0293029B03F00103002B17
:109040000CBF01230023DBB200E00123184604B06B
:10905000704700B585B0EFF305830193019BC3F31F
:1090600008030393039B002B0AD0039B103B02933E
:10907000029B5BB21846FFF707FF0346DBB200E036
:109080000F23184605B05DF804FB000082B00346CC
:109090008DF807309DF90730002B0CDB9DF8073069
:1090A00003F01F0205499DF907305B09012000FA12
:1090B00002F241F8232000BF02B0704700E100E057
:1090C00082B003468DF807309DF90730002B0DDB89
:1090D0009DF8073003F01F0206499DF907305B0930
:1090E000012000FA02F2403341F8232000BF02B011
:1090F000704700BF00E100E082B0034600918DF8A8
:1091000007309DF90730002B0ADB009BDAB20C49CF
:109110009DF907305201D2B20B4483F800230BE0D3
:10912000009BDAB207499DF8073003F00F03043BB8
:109130005201D2B20B441A7600BF02B0704700BF92
:1091400000E100E000ED00E000B583B003460A4610
:109150008DF8073013468DF806309DF80630012B48
:1091600003D99DF80630032B0BD99DF80630042B4C
:1091700003D99DF80630072B03D908496B200BF063
:10918000F5FA9DF806209DF9073011461846FFF7BD
:10919000B3FF00BF03B05DF804FB00BF30800400E4
:1091A00000B583B003468DF807309DF907301846A7
:1091B000FFF76CFF00BF03B05DF804FB00B585B09E
:1091C0000190019B002B0AD0074B43F0010303934E
:1091D000019B9B010293039B0298984700E000BF0C
:1091E00005B05DF804FB00BF4081040084B003902B
:1091F00002910192039B029A02F5A872019943F829
:10920000221000BF04B0704782B001900091019B12
:10921000009A02F5A87253F82230184602B070473F
:1092200082B001900091019B009AC3F8042300BF13
:1092300002B0704782B001900091019B009AC3F880
:10924000082300BF02B0704782B001900B46ADF812
:109250000230BDF80230019A13441B68184602B070
:10926000704784B001900B46ADF80230BDF8023073
:10927000019A134400221A60BDF80230019A134487
:109280001B680393039B00BF04B0704782B001903A
:10929000019BD3F80435184602B0704700B583B07F
:1092A00001900091009BB3F5805F04D306494FF411
:1092B000BE700BF05BFA019B009AC3F8082500BF53
:1092C00003B05DF804FB00BF5480040082B001903D
:1092D0000B468DF803309DF80320019B13441A467A
:1092E0000123136000BF02B0704782B0019000916B
:1092F000019B009AC3F8442300BF02B0704782B0BC
:1093000001900091019B009AC3F8482300BF02B06E
:109310007047000000B587B0039002910192039B53
:10932000002B03D1334955200BF020FA029B002B70
:1093300003D1304956200BF019FA019B002B03D1C1
:109340002C4957200BF012FA039B5B7919462A4AE5
:10935000019B42F82130039B5B79284ADB001344D0
:109360001B79002B0ED008230593254A254BD31AD1
:10937000DB081B0443F002032349184608F020FAD7
:10938000059B32E0039B1A68029B1B881946104616
:10939000FFF784FF039B93F90420029B9B781946F7
:1093A0001046FFF7D1FE039B93F904301846FFF7F0
:1093B000F7FE039B5B79114ADB00134401221A710B
:1093C000039B5B7919460D4A039B42F83130002319
:1093D00005930B4A0B4BD31ADB081B0443F0030322
:1093E0000A49184608F0ECF9059B184607B05DF8E5
:1093F00004FB00BF74800400F82E0020FC2E002027
:10940000C47C04007C7C0400E88004000C8104001F
:1094100000B583B00190019B002B03D10649872042
:109420000BF0A4F9019B1B6800211846FFF74EFFC3
:1094300000BF03B05DF804FB7480040000B583B086
:109440000190019B002B03D106498D200BF08EF972
:10945000019B1B6804211846FFF738FF00BF03B0CB
:109460005DF804FB7480040000B587B0039002919E
:1094700001928DF80330039B002B03D121499620E4
:109480000BF074F94FF48032029B02FA03F3059358
:10949000029B50339BB29B00ADF81230019B23F02E
:1094A0007F430193039B1B6805991846FFF7C2FE93
:1094B000039B1B6805991846FFF721FF039B1B6858
:1094C000BDF8122011461846FFF7CBFE039B1B6820
:1094D000019A02991846FFF789FE039B1B680599BC
:1094E0001846FFF702FF9DF80330002B05D0039BC1
:1094F0001B6805991846FFF793FE00BF07B05DF89B
:1095000004FB00BF7480040000B585B00390029195
:1095100013468DF80730039B002B03D10B49A9207C
:109520000BF024F9039B1B6802991846FFF7DDFE38
:109530009DF80730002B05D0039B1B680299184645
:10954000FFF76EFE00BF05B05DF804FB74800400F9
:1095500000B583B001900091019B002B03D10A4913
:10956000B3200BF003F9019B1B6800991846FFF725
:10957000C6FE019B1B6800991846FFF75BFE00BF03
:1095800003B05DF804FB00BF7480040000B583B035
:1095900001900B46ADF80230019B002B03D10F491F
:1095A000BA200BF0E3F8019B1B68BDF802201146BE
:1095B0001846FFF749FE0346002B09D0019B1B68A4
:1095C000BDF8022011461846FFF74BFE012300E0CC
:1095D0000023184603B05DF804FB00BF748004004C
:1095E00082B001900091019A009BD31A23F07F432F
:1095F000184602B07047000000B58BB0039002918E
:1096000001920093039B002B03D15749CD200BF00F
:10961000ADF84FF48032029B02FA03F30993029BE8
:1096200050339BB29B00ADF82230019B23F07F4367
:10963000019309990398FFF78BFF039B1B6818465A
:10964000FFF724FE0790039B1B6802991846FFF75B
:10965000DBFD0690039B1B68079A02991846FFF7EB
:10966000C5FD039B1B68BDF8222011461846FFF775
:10967000F8FD07990698FFF7B3FF0346012B0AD1BF
:109680001020FFF79BFD039B1B68BDF822201146AD
:109690001846FFF7E6FD039B1B681846FFF7F6FD2B
:1096A000079007990198FFF79BFF0590039B1B68A4
:1096B00009991846FFF719FE059B012B15D1039B4D
:1096C0001868019B01331A460299FFF78FFD10209D
:1096D000FFF774FD039B1B681846FFF7D7FD024692
:1096E000079B934235D00D2339E0039B1B68019AF9
:1096F00002991846FFF77AFD039B1B681846FFF78F
:10970000C5FD0790019B013B07991846FFF768FFCD
:109710000590009BC3F1FF1303F57F43059A9A421E
:1097200001D90D231BE0059B002B12D1039B186868
:10973000019B01331A460299FFF758FD039B1B68F2
:109740001846FFF7A3FD0246079B934201D00D2365
:1097500005E0012209990398FFF7D6FE0023184679
:109760000BB05DF804FB00BF7480040000B583B04B
:1097700001900B468DF803309DF803301A46022104
:109780000198FFF7C1FE00BF03B05DF804FB00B510
:1097900083B001904FF482710198FFF7F7FE034602
:1097A000184603B05DF804FB00B583B0019000914A
:1097B0004FF48032009B02FA03F319460198FFF739
:1097C000C7FE00BF03B05DF804FB00B585B0019093
:1097D0000091009B50339BB29B00ADF80E30BDF85A
:1097E0000E3019460198FFF7D1FE0346184605B022
:1097F0005DF804FB00B583B001900091019B1B68EC
:1098000000991846FFF700FD0346184603B05DF8BF
:1098100004FB00B583B00190019B1B681846FFF75D
:1098200035FD0346184603B05DF804FB00B583B070
:109830000190019B93F904301846FFF741FC00BFEB
:1098400003B05DF804FB000008B5044B1B68044A34
:1098500012681046984700BF08BD00BFF82E0020D0
:10986000FC2E002082B00190019B03F00303002B2B
:109870000CBF01230023DBB2184602B07047000082
:1098800000B585B00190002303930EE00B4A039BC3
:1098900052F82330002B05D0084A039B52F823309E
:1098A00001989847039B01330393039B032BEDD946
:1098B00000BF00BF05B05DF804FB00BF142F0020FF
:1098C00082B001900091019B1B78013B052B61D870
:1098D00001A252F823F000BFF1980200F9980200AB
:1098E0001F99020051990200719902008D9902009E
:1098F000009B00221A704EE0009B01221A70019B0F
:109900001A89009B9A81019B9A88009BDA81019BAE
:10991000DA68009B9A60009B00221A743BE0009B6F
:1099200002221A70019B1A89009B9A81019B9A88D6
:10993000009BDA81019BDA68009B9A60019B9B7D0A
:10994000062B0CBF01230023DAB2009B1A7422E01D
:10995000009B03221A70019BDA88009B9A81019B6D
:109960001A89009BDA81019BDA68009B9A6012E0F9
:10997000009B04221A70019BDA88009B9A81009B4D
:109980000022DA81009B00229A6004E0009B0522FD
:109990001A7000E000BF00BF02B0704784B00190B1
:1099A0000091019B0393039A009B9A4206D2039B6A
:1099B0001B68B3F1FF3F01D0012300E0002303F057
:1099C0000103DBB2184604B0704782B00190019BDE
:1099D0005B8803339B00019A1344184602B070471A
:1099E00000B583B0019000910198FFF7EEFF0246A9
:1099F000009B934201D2022311E0019B9B884FF60A
:109A0000FF72934208D0019B1B88002B04D0019B5E
:109A10009B68B3F1FF3F01D1012300E0002318460A
:109A200003B05DF804FB000000B583B00190019B1A
:109A3000002B13D00D4BDB681A46019B93420DD3CC
:109A40000A4B1B691A46019B934207D80198FFF7FE
:109A500009FF0346002B01D0012300E0002303F09F
:109A60000103DBB2184603B05DF804FB102C0020A4
:109A700082B00190019B002B04D0019B1B680B4A14
:109A8000934201D003230DE0019B04331B68084A75
:109A9000934204D0074A934203D1012302E00023FA
:109AA00000E00323184602B0704700BFDEC0ADDE01
:109AB000FE011EF1FF011EF184B00190019B1B68A5
:109AC000B3F1FF3F06D0019B1B680E4A934201D0C1
:109AD000002314E0012303930CE0039B9B00019AF5
:109AE00013441B68B3F1FF3F01D0002307E0039B41
:109AF00001330393039BB3F5806FEED30123184624
:109B000004B07047DEC0ADDE82B003460A46ADF851
:109B100006301346ADF80430BDF80620134913464D
:109B20009B0013449B000B4408331A88BDF8043093
:109B30001344ADF80430BDF806200C4913469B00D1
:109B400013449B000B440A331A88BDF804301344B5
:109B5000ADF80430BDF80430B3F5806F94BF012335
:109B60000023DBB2184602B0704700BFC42F0020AC
:109B700084B00190009148F2096303930023ADF88B
:109B80000A3027E0BDF80A20164913469B0013440B
:109B90009B000B4404331B68009A9A4215D9BDF808
:109BA0000A20104913469B0013449B000B440433C6
:109BB0001B6803F58053009A9A4206D20023039350
:109BC000019BBDF80A201A8008E0BDF80A30013375
:109BD000ADF80A30BDF80A30012BD3D9039B1846E3
:109BE00004B07047C42F002000B589B003900291E3
:109BF0000192039B03F580530693039B0833039361
:109C0000029B02221A80039B079332E00699079871
:109C1000FFF7E6FE03468DF817309DF81730002B4E
:109C20000AD1079B9A68184B1B689A4213D9079B65
:109C30009B68154A13600EE0019B002B02D0019B2C
:109C400001221A709DF81730022B04D1029B4FF4A9
:109C500080621A8014E0029B1A88079B5B88134479
:109C60009BB203339AB2029B1A800798FFF7ADFEAE
:109C7000079006990798FFF791FE0346002BC5D180
:109C800009B05DF804FB00BF242F002082B00190D2
:109C90000091009B9B7D022B09D9019B1A89009B97
:109CA000DB8813449BB203339AB2019B1A81019B58
:109CB0005A89009BDB88D31A9BB2033B9AB2019B63
:109CC0005A8100BF02B0704700B583B0074B1B68D4
:109CD0001946002300930823054A064802F00AFFAC
:109CE0000346184603B05DF804FB00BFEC2F0020CC
:109CF000B4810400102C002000B585B003900399B6
:109D0000002300930823044A044802F0F3FE0346AC
:109D1000184605B05DF804FBBC810400102C00203F
:109D200000B585B003460091ADF8063000238DF8EC
:109D30000F30BDF806300333ADF80A30BDF80A30F5
:109D400040F2FE32934202D948F208634BE000230E
:109D5000ADF80C303BE0BDF80C20254913469B00C4
:109D600013449B000B441B78002B2BD1BDF80A2019
:109D7000BDF80C3011461846FFF7C6FE0346002B0F
:109D800020D001238DF80F30009BBDF80C201A80E5
:109D9000BDF80C20164913469B0013449B000B444E
:109DA0000A331988BDF80C20BDF80A300B4498B26C
:109DB0000F4913469B0013449B000B440A33024691
:109DC0001A8008E0BDF80C300133ADF80C30BDF856
:109DD0000C30012BBFD99DF80F30002B01D0002390
:109DE00001E048F20663184605B05DF804FB00BFC9
:109DF000C42F002082B003460A46ADF80630134651
:109E0000ADF80430BDF804200D4913469B001344FF
:109E10009B000B440A331A88BDF80630D31A9BB254
:109E2000BDF80420033B98B2054913469B00134438
:109E30009B000B440A3302461A8000BF02B07047F1
:109E4000C42F002008B50121024802F0CEF80346D5
:109E5000184608BD242F002000B585B003460091A8
:109E6000ADF80630BDF80620244913469B00134484
:109E70009B000B4404331B6803F580530293009B43
:109E80001B680393039B002B04D00398FFF79DFDF1
:109E9000039026E0BDF80620184913469B001344A2
:109EA0009B000B4404331B680833039319E00299A9
:109EB0000398FFF795FD0346022B10D0022B10DC10
:109EC000002B02D0012B05D00BE0009B039A1A60F7
:109ED00001230EE00398FFF778FD039001E00023D3
:109EE00007E002990398FFF759FD0346002BDED1E6
:109EF0000023184605B05DF804FB00BFC42F002006
:109F000000B585B001900091019B5B681846FFF792
:109F10008BFD0346002B19D0019B1A89244B1B890A
:109F20009A4213D1019B1A68019B5B689B689A4215
:109F30000CD1019B5B6819460098FFF719FE034698
:109F4000002B0CBF01230023DBB22CE0009B00227E
:109F50001A8023E00023029310E0029B0393039BEB
:109F60009A68019B1B689A4208D1029A019B5A6029
:109F70000F4B1A89019B1A81012314E0009B1B8857
:109F800002AA11461846FFF767FF0346002BE4D1EB
:109F9000009B1B8801339AB2009B1A80009B1B8890
:109FA000012BD7D90023184605B05DF804FB00BF8C
:109FB000F42F002000B587B0039002910192009326
:109FC000324B1B78DBB283F00103DBB2002B02D0F3
:109FD00048F2016355E0019B002B02D0009B002B4F
:109FE00049D148F204634CE0009B9B881946284AFB
:109FF0000B469B000B449B0013441B78002B33D172
:10A0000024E0009B1B680593039B002B06D0059B57
:10A010009A88039B1B889A4200D017E0029B002B72
:10A0200006D0059B1A88029B1B889A4200D00DE03F
:10A03000059B9A68019B1A60009B1A68019B5A60F5
:10A04000144B1A89019B1A8100231AE0009B9B88FC
:10A05000009A11461846FFF7FFFE0346002BD0D1A9
:10A06000009B00221A6000E000BF009B9B88013328
:10A070009AB2009B9A80009B9B88012BB4D948F22E
:10A080000963184607B05DF804FB00BF042F0020E9
:10A09000C42F0020F42F002000B587B00291019258
:10A0A00000930346ADF80E30BDF80E20324913463A
:10A0B0009B0013449B000B4404331B680833059337
:10A0C000BDF80E202C4913469B0013449B000B4403
:10A0D00004331B6803F58053049342E00499059808
:10A0E000FFF77EFC0346022B25D0022B38DC002B29
:10A0F00016D0012B34D1019B1B8801339AB2019BEE
:10A100001A80009B1A88059B5B8813449BB203331B
:10A110009AB2009B1A800598FFF757FC059020E043
:10A12000029B1B8801339AB2029B1A800598FFF7A5
:10A130004CFC059015E0019B1B8801339AB2019BF2
:10A140001A80009B1A880499059BCB1A9B109BB21E
:10A1500013449AB2009B1A80089B01221A7007E0F0
:10A1600000BF04990598FFF719FC0346002BB5D1F1
:10A1700007B05DF804FB00BFC42F002000B585B018
:10A180000190084B0199184601F07AFD03901C22BA
:10A190000021039816F012FE039B184605B05DF8E7
:10A1A00004FB00BFB42F002000B583B00190044B26
:10A1B0000199184601F07DFD00BF03B05DF804FB76
:10A1C000B42F002000B583B00190054B01991846CB
:10A1D00001F083FD0346184603B05DF804FB00BFA1
:10A1E000B42F002000B583B00190044B01991846AC
:10A1F00001F08CFD00BF03B05DF804FBB42F00201C
:10A2000008B50A4B1B68002B04D109494FF4247090
:10A210000AF0ACFA0121054801F0FFFE0346002BCD
:10A2200014BF01230023DBB2184608BD0C2F002009
:10A230004881040000B587B0002305930023ADF8E2
:10A2400012300323ADF8103000238DF80F300023B7
:10A25000ADF80C30F7E0BDF80C301A03824BDB6828
:10A26000134402930298FFF703FC03468DF807306E
:10A270009DF80730032B08D0032B00F3DE80002B62
:10A2800065D0012B00F09880D7E00298FFF714FC0E
:10A290000346002B3BD0754B1B68002B29D0BDF823
:10A2A0001220734913469B0013449B000B44022267
:10A2B0001A70BDF812206E4913469B0013449B0090
:10A2C0000B440433029A1A60BDF812206849134601
:10A2D0009B0013449B000B44083302221A80654AFA
:10A2E000BDF812305380BDF812300133ADF8123092
:10A2F00008E05E4A029B13605C4B02229A800123B5
:10A300008DF80F30059B43F00103059396E0BDF8EF
:10A310001030013BADF81030BDF8122054491346FF
:10A320009B0013449B000B440433029A1A60BDF84F
:10A3300012204F4913469B0013449B000B440322F9
:10A340001A70BDF812300133ADF8123076E0BDF866
:10A350001220474913469B0013449B000B440022E4
:10A360001A70BDF81220424913469B0013449B000B
:10A370000B440433029A1A60BDF8122013469B0066
:10A3800013449B0008333A4A9918BDF8122013462B
:10A390009B0013449B001033354A13441A4602981D
:10A3A000FFF722FC059B43F002030593BDF8123032
:10A3B0000133ADF8123041E09DF80F30002B29D069
:10A3C000BDF812202A4913469B0013449B000B44FE
:10A3D00002221A70BDF81220244B19682448134633
:10A3E0009B0013449B00034404331960BDF8122002
:10A3F0001F4913469B0013449B000B440833022261
:10A400001A801C4ABDF812305380BDF81230013357
:10A41000ADF81230154A029B1360002216490298CB
:10A42000FFF7E2FB114B9B88022B01D1042300E0D4
:10A430000823059A1343059300E000BFBDF80C30D4
:10A440000133ADF80C30BDF80C30022B7FF603AFB2
:10A45000BDF81030012B01D800230593059BDBB21A
:10A46000184607B05DF804FB102C0020EC2F0020EC
:10A47000C42F0020F42F0020F02F002000B587B05B
:10A4800003900291039B02229A750299039B1A1D65
:10A49000002300930423074802F02CFB0590059B42
:10A4A000002B01D1002301E048F20D63184607B0EC
:10A4B0005DF804FB102C002000B587B003900291DA
:10A4C000039B1B69002B01D0032200E00122039BA8
:10A4D0009A75029B08331946039B03F10C02002373
:10A4E00000930423074802F005FB0590059B002B11
:10A4F00001D1002301E048F20D63184607B05DF872
:10A5000004FB00BF102C002000B587B0039002911F
:10A51000039B1B78032B01D1052200E00622039B3D
:10A520009A75029B04331946039B03F1080200232A
:10A5300000930423074802F0DDFA0590059B002BE9
:10A5400001D1002301E048F20D63184607B05DF821
:10A5500004FB00BF102C002000B587B003900B4611
:10A56000ADF80A3003990023009304230D4A0E48E6
:10A5700002F0C0FA0590059B002B02D048F20D6353
:10A580000BE0BDF80A20094913469B0013449B00C9
:10A590000B44103301221A700023184607B05DF8EF
:10A5A00004FB00BFC4810400102C0020C42F002035
:10A5B00000B589B0019002AB00221A605A609A601F
:10A5C000019BDB6802930DF1160202AB114618469F
:10A5D000FFF796FC0346002B12D0039B0693069BC5
:10A5E0009A88019BDA80069B1A88019B1A81039B3B
:10A5F000BDF8162011461846FFF7AEFF079002E09F
:10A6000048F209630793079B184609B05DF804FBFD
:10A6100000B587B00190019B981D02AA0D4B002147
:10A62000FFF7C8FC0590059B002B08D1039B094A46
:10A63000928811461846FFF78FFF059004E0082224
:10A640000021044816F0BAFB059B184607B05DF8D8
:10A6500004FB00BF0430002000B587B003900291D6
:10A66000039B01229A75029B0C331846039B1A69BF
:10A67000039BDB889B00002100910146074802F004
:10A6800039FA0590059B002B01D1002301E048F227
:10A690000D63184607B05DF804FB00BF102C0020C6
:10A6A00082B0184B1B8901339AB2164B1A81154B95
:10A6B00000225A80134B00221A730023ADF8063093
:10A6C00018E0BDF80620104913469B0013449B0078
:10A6D0000B441A78BDF80630002A0CBF0122002274
:10A6E000D1B2084A13440A469A72BDF806300133C3
:10A6F000ADF80630BDF80630012BE2D900BF00BF2F
:10A7000002B07047F42F0020C42F002084B00190C5
:10A7100000238DF80F300023ADF80C3031E0BDF888
:10A720000C301C4A13449B7A002B25D0BDF80C300A
:10A73000184A134400229A72BDF80C201649134699
:10A740009B0013449B000B440C331B68002B13D15C
:10A75000BDF80C20104913469B0013449B000B448A
:10A7600010331B78002B07D0019BBDF80C201A80FA
:10A7700001238DF80F3008E0BDF80C300133ADF83F
:10A780000C30BDF80C30012BC9D99DF80F3018469C
:10A7900004B07047F42F0020C42F002008B5084BE8
:10A7A00005221A70074B02229A80064B1B68194635
:10A7B00000230122044802F07FFA0346184608BD30
:10A7C000F42F0020EC2F0020102C002000B583B0C7
:10A7D000164B5B88ADF80230BDF8022014491346D1
:10A7E0009B0013449B000B440C331B68002B14D1BB
:10A7F0000E4B04221A70BDF802200D4913469B002F
:10A8000013449B000B4404331B68194600230122A8
:10A81000084802F051FA019002E0FFF7BFFF0190F3
:10A82000019B184603B05DF804FB00BFF42F002025
:10A83000C42F0020102C002000B587B0104B5B689F
:10A840000593104B1A680F4B9B889B00134404938D
:10A85000059B5B880333ADF80E30094B03221A7059
:10A860000499074B5A68BDF80E309B0000200090F9
:10A87000054802F03FF90346184607B05DF804FBAF
:10A88000F42F0020EC2F0020102C002000B583B006
:10A890000A4B5B880A491846FFF7DEFA0346002B8D
:10A8A00003D0FFF7C9FF019002E0FFF78FFF01908F
:10A8B000019B184603B05DF804FB00BFF42F002095
:10A8C000F82F002008B50A4B06221A70084B5B8847
:10A8D0001946084A0B469B000B449B001344043363
:10A8E0001B681846FFF708FA0346184608BD00BF64
:10A8F000F42F0020C42F002008B5054B07221A7042
:10A90000034B00225A60FFF7DFF90346184608BDE3
:10A91000F42F002008B50D48FFF7F8FE034683F03A
:10A920000103DBB2002B0BD0094B00221A70084B3D
:10A9300000225A80064B00225A6041F61D5302E065
:10A94000FFF7A4FF0346184608BD00BFF62F0020FE
:10A95000F42F002082B0094B5B680193019B5B8858
:10A960000333ADF80230064B9A88BDF80230134429
:10A970009AB2034B9A8000BF02B07047F42F0020B8
:10A98000EC2F002082B01E4B1B6801931D4B5B888F
:10A9900019461D4A0B469B000B449B00134404338D
:10A9A0001B68174A1360174B5B881946164A0B46FB
:10A9B0009B000B449B0013440433019A1A60114B13
:10A9C0005B8819460E4B98880F4A0B469B000B4438
:10A9D0009B001344083302461A80094B02229A80D6
:10A9E000084B5B881946084A0B469B000B449B00AA
:10A9F0001344103300221A7000BF02B0704700BF2A
:10AA0000EC2F0020F42F0020C42F002008B51A4B93
:10AA10001B78072B2CD801A252F823F03DAA020084
:10AA200071AA020071AA020049AA020055AA0200F6
:10AA300061AA020061AA020069AA0200FFF730FEC3
:10AA40000D4B01221A7014E0FFF784FF0A4B02221B
:10AA50001A700EE0FFF796FF074B06221A7008E007
:10AA6000054B07221A7004E0034B01221A7000E024
:10AA700000BF00BF08BD00BFF42F002000B587B0A5
:10AA80000190009148F20E630593019B002B05D0C5
:10AA9000634B00225A604FF40643BCE0009B1B79D5
:10AAA000032B00F2AB8001A252F823F0BDAA0200F2
:10AAB000CBAA020059AB020079AB0200009B012235
:10AAC0001A71FFF701F905909BE000238DF8133010
:10AAD0000023ADF810302BE0BDF81020514913468B
:10AAE0009B0013449B000B441B78022B1BD1BDF829
:10AAF00010204C4913469B0013449B000B4400223A
:10AB00001A7001238DF81330BDF810204549134603
:10AB10009B0013449B000B4404331B681846FFF74B
:10AB2000EBF8059008E0BDF810300133ADF81030B7
:10AB3000BDF81030012BCFD99DF8133083F00103FD
:10AB4000DBB2002B5CD0364B01221A70344B002252
:10AB50005A6041F61D535EE0009B00221A71324B91
:10AB600002229A80304B1B681946002301222F488D
:10AB700002F0A2F8059044E0009B00221A712A4BD3
:10AB80001B681846FFF7B8F80590294B5B88ADF8AD
:10AB90000E30254B1B680293BDF80E202149134649
:10ABA0009B0013449B000B4404331B681E4A136034
:10ABB000BDF80E201B4913469B0013449B000B4419
:10ABC0000433029A1A60BDF80E20174B9888154975
:10ABD00013469B0013449B000B44083302461A8023
:10ABE000114B02229A80BDF80E200E4913469B009D
:10ABF00013449B000B4400221A7002E000BF00E0E7
:10AC000000BF059B002B05D0054B00225A6048F27F
:10AC10000D6300E00023184607B05DF804FB00BF99
:10AC2000042F0020C42F0020EC2F0020102C002027
:10AC3000F42F002000B587B001900091009B9B8A03
:10AC40001A4613469B0013449B003B4A134404934B
:10AC5000019B002B06D000990498FFF717F84FF4DA
:10AC6000064364E0049B5A68049B1B899B001344C1
:10AC70000393009B9B7D062B4DD801A252F823F035
:10AC8000C5AC0200E9AC0200D1AC0200DDAC0200B0
:10AC90009DAC0200F5AC02000FAD0200274B002274
:10ACA0005A60009B9B69254A136025492348FFF79A
:10ACB00027F9034683F00103DBB2002B02D048F2F0
:10ACC000096334E003990098FFF7D8FB059026E06C
:10ACD00003990098FFF7F0FB059020E00399009896
:10ACE000FFF7BAFC05901AE003990098FFF70CFCF7
:10ACF000059014E0009B06229A75104B5B68104A81
:10AD0000128811461846FFF727FC059007E041F628
:10AD10001D53059303E048F20E63059300BF059BA6
:10AD2000002B03D000990498FEF7B0FF059B18464E
:10AD300007B05DF804FB00BFC42F00200C300020DA
:10AD40001830002000B585B001900091019B002BC8
:10AD500002D04FF4064329E0009B1B79022B1BD045
:10AD6000022B1DDC002B02D0012B08D018E0009B29
:10AD700002221A710098FFF71BFC039015E000985F
:10AD8000FFF746FC0390039B48F2096293420BD104
:10AD900041F61D53039307E041F61D53039304E06E
:10ADA00048F20E63039300E000BF039B184605B012
:10ADB0005DF804FB00B585B00190019B002B02D02B
:10ADC0004FF406433DE0214B1B7B002B03D01F4B70
:10ADD00000221A7301E0FFF719FE1C4B1B78013BA0
:10ADE000062B29D801A252F823F000BF09AE0200B9
:10ADF00011AE020019AE020021AE020039AE02000F
:10AE000029AE020031AE0200FFF784FD039017E087
:10AE1000FFF73CFD039013E0FFF70EFD03900FE0FA
:10AE2000FFF7D4FC03900BE0FFF74CFD039007E025
:10AE3000FFF762FD039003E048F20E63039300BF47
:10AE4000039B184605B05DF804FB00BFF42F0020FB
:10AE500000B589B00190404B1B68002B05D13F48DD
:10AE6000FFF7B0F903463C4A13603B4B1B68002BCD
:10AE700004D13B4940F29E5009F078FC364B1B68E8
:10AE80001B78013B052B2CD801A252F823F000BF00
:10AE9000A9AE0200B9AE0200B9AE0200C9AE02000E
:10AEA000C9AE0200D9AE02002B4B1B6819460198AF
:10AEB000FFF7E4FD019018E0274B1B681946019845
:10AEC000FFF7B8FE019010E0234B1B68194601986C
:10AED000FFF738FF019008E00198FFF76BFF019042
:10AEE00003E048F20E63019300BF019B002B2BD0BF
:10AEF00003AB00221A605A609A60DA601A61019B03
:10AF000041F61D52934201D0019B00E000230493BF
:10AF1000114B1B6803AA11461846FEF7D1FC03AB80
:10AF20001846FEF7ADFC0C4B00221A60002301937B
:10AF30000A48FFF757F9FFF763F9034683F0010367
:10AF4000DBB2002B02D186E700BF00E000BF00BFEC
:10AF500009B05DF804FB00BF1C3000202030002049
:10AF60004881040008B50121054801F026F8034690
:10AF7000002B02D10020FFF76BFF00BF08BD00BF10
:10AF80000C2F002000B583B00190019B5B68184630
:10AF9000FFF75EFF00BF03B05DF804FB00B58BB0A8
:10AFA0000390029101928DF803300023ADF8243014
:10AFB0000023ADF82630534B1B78DBB283F001033E
:10AFC000DBB2002B02D048F2016397E0029B002B1A
:10AFD00002D148F2046391E0029B1B884FF6FF7296
:10AFE000934203D0029B5B88002B02D148F203639B
:10AFF00084E0029B5B681846FEF734FC034683F04E
:10B000000103DBB2002B02D048F2026376E0019B21
:10B01000002B11D1029B9B68ADF826300DF11A026E
:10B02000BDF8263011461846FEF77AFE0890089BB8
:10B03000002B09D0089B61E0019B1B88ADF81A30FA
:10B04000019B5B88ADF8263005AB1846FFF796F8F4
:10B050000790079B002B0AD1BDF81A20BDF82630B7
:10B0600011461846FEF7C6FE48F2076346E0079B06
:10B070009DF803201A70079B00229A75BDF81A20CC
:10B08000079B9A82029B5A68079B1A61FEF7DAFEB9
:10B090000246079BDA60029B1A88079B1A81029B73
:10B0A0005A88079B9A80079BBDF82620DA809DF876
:10B0B0000330032B06D1079B04229A75039B1A6861
:10B0C000079B9A61079BBDF824205A8105AB18465F
:10B0D000FFF76AF8039B002B0DD0039B00225A60F8
:10B0E000079BDA68039B1A60039B00229A72064B47
:10B0F0001A89039B1A81FFF735FF002318460BB00E
:10B100005DF804FB042F0020F42F002000B585B06B
:10B1100001900C4B1B68042B03D148F20B63039383
:10B120000BE0084B1B680849019A41F823200121D4
:10B13000044800F05AFF00230393039B184605B010
:10B140005DF804FB102F0020142F002084B040F67F
:10B15000F8731B68B3F1FF3F02D10F4B1B6802E08D
:10B1600040F6F8731B6803934FF080531B690293FA
:10B170004FF080535B690193039BB3F1FF3F04D110
:10B18000019B029A02FB03F300E0039B0093009BE8
:10B19000184604B0704700BF1410001000B583B00B
:10B1A0004FF440530193FFF7D1FF0346054A136163
:10B1B000044B1A69019BD31A024AD36000BF03B043
:10B1C0005DF804FB102C002008B5FFF7E7FF002214
:10B1D0000349044801F046FC0346184608BD00BF79
:10B1E00024860400102C002008B504481C238C225F
:10B1F000034900F0FEFC00BF08BD00BFB42F0020D3
:10B20000282F002000B58BB002AB00221A605A60D4
:10B210009A60DA601A61424B1B78DBB2002B05D0D2
:10B2200002AB1846FEF72CFB002375E03D4800F00A
:10B230000CFF0346002B01D000236DE0FFF7C4FF95
:10B240000990099B002B01D0099B65E0FFF7CCFF1B
:10B25000FEF7F0FF03468DF823309DF82330062BD0
:10B2600008D0062B12DC002B01D0022B0ED148F2A5
:10B270000A6351E02A4B01221A70294B00225A60BE
:10B2800002AB1846FEF7FCFA002345E000BF01AB15
:10B290001846FEF773FF0790079B002B02D148F278
:10B2A000076339E0079B01221A709DF82330013BA8
:10B2B0000A2B29D801A252F823F000BFE9B20200FC
:10B2C00009B30200E9B2020009B3020001B30200AF
:10B2D00009B3020001B3020009B30200F1B2020097
:10B2E000F9B20200F1B20200079B00221A710CE0D1
:10B2F000079B03221A7108E0079B02221A7104E0DF
:10B30000079B01221A7100E000BF01AB1846FEF74F
:10B310004BFFFFF727FE002318460BB05DF804FB38
:10B32000042F0020082F002000B585B00190009167
:10B33000019B002B02D0009B002B02D148F204633A
:10B340002AE00DF10A0319460198FEF7D9FD0346DC
:10B35000002B1FD0019B5B680393BDF80A301A468F
:10B3600013469B0013449B0008330D4A13440433D7
:10B370000121184600F039FE009B039A1A60019BD8
:10B380005B6803F10C02009B5A60019B01229A72D8
:10B39000002301E048F20963184605B05DF804FB9C
:10B3A000C42F002000B585B00190019B002B02D175
:10B3B00048F204633BE00DF10A0319460198FEF7D9
:10B3C0009FFD0346002B2ED0BDF80A3019461A4ABD
:10B3D0000B469B000B449B0013440C331B68002B53
:10B3E0001DD0019B9B7A002B19D0BDF80A301A465C
:10B3F000114913469B0013449B000B440C331B68FC
:10B40000591E0D4813469B0013449B0003440C3304
:10B410001960019B00229A720023039306E048F210
:10B420000563039302E048F209630393039B184604
:10B4300005B05DF804FB00BFC42F002000B583B049
:10B44000019000910223002200990198FFF7A6FDC8
:10B450000346184603B05DF804FB00B583B00190C5
:10B460000091019B002B02D148F2046306E0032304
:10B47000002200990198FFF791FD0346184603B09A
:10B480005DF804FB00B585B00346ADF806301A4BF5
:10B490001B78DBB283F00103DBB2002B02D048F251
:10B4A000016324E0BDF806304FF6FF72934202D1EB
:10B4B00048F203631BE002AB1846FEF75FFE039001
:10B4C000039B002B02D148F2076310E0039B052287
:10B4D0001A70039B01221A71039BBDF80620DA80C3
:10B4E00002AB1846FEF760FEFFF73CFD002318464E
:10B4F00005B05DF804FB00BF042F002000B583B049
:10B50000154B1B78DBB283F00103DBB2002B02D0BA
:10B5100048F201631BE06B461846FEF72FFE0190D0
:10B52000019B002B02D148F2076310E0019B062229
:10B530001A706B461846FEF737FE084B1B78002B37
:10B5400002D0064B01221A73FFF70CFD00231846A8
:10B5500003B05DF804FB00BF042F0020F42F00208F
:10B5600000B585B0029201930346ADF80E300B464C
:10B57000ADF80C3003A90DF10E00019B029AFEF705
:10B5800019FD0346184605B05DF804FB00B585B00B
:10B59000034602910192ADF80E300DF10E01019BB0
:10B5A000029A0020FEF706FD0346184605B05DF836
:10B5B00004FB00B585B0034602910192ADF80E3050
:10B5C0000DF10E00019B029A0021FEF7F3FC0346E9
:10B5D000184605B05DF804FB82B001900091019B14
:10B5E000002B02D0009B002B02D148F2046304E040
:10B5F000019B1A68009B1A600023184602B070472E
:10B6000010B586B003904FF48063ADF8143000237A
:10B61000ADF812304F4B1B78DBB283F00103DBB285
:10B62000002B02D048F2016391E0039B002B02D172
:10B6300048F204638BE012220021039815F0BEFB50
:10B64000039B03221A800023ADF816307AE0BDF880
:10B650001620414913469B0013449B000B440833BA
:10B660001988BDF816203C4813469B0013449B00E4
:10B6700003440A331B880B44ADF81030BDF8162084
:10B68000354913469B0013449B000B4404331B684D
:10B690001846FEF7EDF90346032B05D1039B1B88E3
:10B6A000013B9AB2039B1A80BDF816202A49134623
:10B6B0009B0013449B000B440C331968039B5A886E
:10B6C0008BB213449AB2039B5A80039B1989BDF82D
:10B6D0001620214813469B0013449B0003440A3361
:10B6E0001B880B449AB2039B1A81039B5A89BDF8AD
:10B6F000103013449AB2039B5A81BDF81420BDF850
:10B700001030D31AADF81230039B9B89BDF812207C
:10B710009A4203D9039BBDF812209A81039B191DFD
:10B72000039B9A1D039B03F10E04039B1033BDF88A
:10B73000160000932346FEF7AFFCBDF81630013328
:10B74000ADF81630BDF81630012B80D9002318460D
:10B7500006B010BD042F0020C42F002086B0039037
:10B7600002910192039B5B090593059B5B01039A80
:10B77000D31A0493029B059A1A60019B049A1A60DB
:10B7800000BF06B07047000084B001900091002314
:10B7900003931FE0019B002B10D0124A039B52F829
:10B7A0002330019A9A4209D80F4A039B52F823206A
:10B7B0000E49039B51F823309A4206D10A4A039B53
:10B7C00052F82330009A9A4201D2039B06E0039B71
:10B7D00001330393039B062BDCD90023184604B0E6
:10B7E000704700BF50820400888204006C8204000D
:10B7F00000B585B0019002AA03AB19460198FFF786
:10B80000ADFF039B074A52F82310029B01229A4086
:10B81000039B0A43034941F8232000BF05B05DF8AC
:10B8200004FB00BF2432002000B585B001900199CF
:10B830000020FFF7A9FF0390034A039B52F823302F
:10B84000184605B05DF804FB5082040000B585B0D1
:10B85000019002AA03AB19460198FFF77FFF039BF3
:10B86000084A52F82320029B22FA03F303F0010353
:10B87000002B14BF01230023DBB2184605B05DF88E
:10B8800004FB00BF2432002000B585B0019002AA5D
:10B8900003AB19460198FFF761FF039B084A52F872
:10B8A0002310029B012202FA03F3DA43039B0A40AE
:10B8B000034941F8232000BF05B05DF804FB00BF39
:10B8C0002432002000B583B00023019300230193AC
:10B8D00005E00198FFF78CFF019B01330193019B69
:10B8E0000F2BF6D9034B01221A700023184603B020
:10B8F0005DF804FB2832002000B58BB00390029164
:10B90000384B1B7883F00103DBB2002B02D048F2E6
:10B91000081362E0039B002B02D148F20E135CE097
:10B92000029B002B02D148F20E1356E0029B1B68CB
:10B930000593059B002B02D0059B202B02D948F2D2
:10B9400007134AE010210598FFF71EFF0490264ACE
:10B95000049B52F823300993244A049B52F8233065
:10B96000079348F2041308931EE00998FFF75CFF61
:10B9700006900998FFF76AFF0346002B0DD00023BD
:10B9800008930998FFF780FF079B194A1A44039B05
:10B990001A60029B069A1A6009E0079A069B1344F4
:10B9A0000793099B01330993099B0F2BDDD9089B52
:10B9B000002B11D00F4A104BD31ADB081B0443F0A5
:10B9C0000100039B1B681A46029B1B6800931346E9
:10B9D000089A0A4905F027FF089B18460BB05DF846
:10B9E00004FB00BF283200206C820400A482040003
:10B9F00024300020D47C04007C7C0400D48104002A
:10BA000000B587B0019000230493019B039303AA20
:10BA100004AB11461846FFF76FFF0590059B002BFE
:10BA20000DD0094A094BD31ADB081B0443F001036C
:10BA3000019A0749184605F0D1FE00230493049BA0
:10BA4000184607B05DF804FBD47C04007C7C04003D
:10BA50001082040000B585B00190174B1B7883F06D
:10BA60000103DBB2002B20D1019B002B1FD0002350
:10BA700003930023029314E0039B104A1344019A9A
:10BA80009A4204D10298FFF7B3FE00BF10E002987B
:10BA9000FFF7CAFE0246039B13440393029B013344
:10BAA0000293029B0F2BE7D902E000BF00E000BF2A
:10BAB00005B05DF804FB00BF2832002024300020D0
:10BAC00086B001900091019B53E8011F8AB2D8898A
:10BAD00002449889824228BF121A1889824202BF02
:10BAE000BFF32F8F002307E0C2EA010243E80120E1
:10BAF0000028E9D14FF001038DF80F300590029135
:10BB00000492029A009B1A609DF80F30DBB218462F
:10BB100006B0704784B00190019951E8013FC3EA33
:10BB2000034341E80132002AF7D10392029300BF98
:10BB300004B0704786B001900091019B53E8021F4A
:10BB40001FFAA1F2D888824202BFBFF32F8F0023D1
:10BB50000DE0D88902449889824228BF121AC1EAAE
:10BB6000024243E802200028E8D14FF001038DF89B
:10BB70000F30059002910492029A009B1A609DF882
:10BB80000F30DBB2184606B0704784B001900199BF
:10BB900051E8023FC3EA234341E80232002AF7D1C9
:10BBA0000392029300BF04B0704786B00190019BDE
:10BBB00053E8021FDA88B1EB314F4FF0000017BF96
:10BBC00089B242EA024241EA024204E05968B1EB1A
:10BBD000314F08BF012043E802210029E8D18DF848
:10BBE0000F00059104929DF80F30DBB2184606B0A5
:10BBF000704784B00390029111461A460B46ADF887
:10BC000006301346ADF80430029B002B01D10E2301
:10BC10001FE0BDF80630BDF80420B3FBF2F101FBD4
:10BC200002F29B1A9BB2002B01D0092311E0039B67
:10BC3000029A1A60039B00225A60039B00229A60BA
:10BC4000039BBDF806209A81039BBDF80420DA818E
:10BC50000023184604B0704700B585B001900198E4
:10BC6000FFF7A3FF03468DF80F309DF80F30002B30
:10BC700001D0002300E01123184605B05DF804FB55
:10BC800000B585B001900091009B19460198FFF71F
:10BC900017FF0346002B07D0019B1B68009A1288F0
:10BCA00013440393039B00E00023184605B05DF89E
:10BCB00004FB00B583B001900091009B1A88009BA3
:10BCC0005B889A4204D10198FFF724FF012300E02A
:10BCD0000023184603B05DF804FB00B585B0019061
:10BCE0000091009B19460198FFF724FF0346002BA3
:10BCF00007D0019B1B68009A528813440393039B4F
:10BD000000E00023184605B05DF804FB00B583B0E1
:10BD100001900091009B1A88009B5B889A4204D195
:10BD20000198FFF732FF012300E00023184603B01B
:10BD30005DF804FB00B585B001900091009B5B09A4
:10BD40009B00019A1A44009B03F01F03012101FA92
:10BD500003F31946104600F0E8F8039000BF05B061
:10BD60005DF804FB00B583B001900091009B5B0976
:10BD70009B00019A1A44009B03F01F03012101FA62
:10BD800003F31946104600F0B8F80246009B03F092
:10BD90001F0322FA03F303F00103002B14BF012356
:10BDA0000023DBB2184603B05DF804FB00B585B094
:10BDB00001900091009B5B099B00019A1A44009B33
:10BDC00003F01F03012101FA03F3DB431946104678
:10BDD00000F0DBF8039000BF05B05DF804FB82B013
:10BDE00001900091009B5B099B00019A13441A6823
:10BDF000009B03F01F0322FA03F303F00103002B5F
:10BE000014BF01230023DBB2184602B0704700B50F
:10BE10008DB00190009100230B934BE00B9B9B0096
:10BE2000019A13441B68DB430793079B93FAA3F320
:10BE30000693069B0893089B002B01D1202303E067
:10BE4000089BB3FA83F3DBB20A932BE00B9B5B01F5
:10BE50000A9A13440993099A009B9A4226D2099997
:10BE60000198FFF77FFF034683F00103DBB2002B4D
:10BE700001D0099B26E00B9B9B00019A13441B6891
:10BE8000DB430493049B93FAA3F30393039B05936F
:10BE9000059B002B01D1202303E0059BB3FA83F31C
:10BEA000DBB20A930A9B1F2BD0D900E000BF0B9B8B
:10BEB00001330B93009B013B5B0901330B9A9A42C0
:10BEC000ACD3009B18460DB05DF804FB10B487B0EE
:10BED00001900091019B009A53E8004F104643E8FF
:10BEE000000191F0000FF7D1059404900391059B98
:10BEF000184607B05DF8044B704710B487B0019046
:10BF00000091019B009A53E8004F44EA020043E885
:10BF1000000191F0000FF6D1059404900391059B68
:10BF2000184607B05DF8044B704710B487B0019015
:10BF30000091019B009A53E8004F44EA020043E855
:10BF4000000191F0000FF6D1059404900391049B39
:10BF5000184607B05DF8044B704710B487B00190E5
:10BF60000091019B009A53E8004F04EA020043E865
:10BF7000000191F0000FF6D1059404900391059B08
:10BF8000184607B05DF8044B704710B487B00190B5
:10BF90000091019B009A53E8004F04EA020043E835
:10BFA000000191F0000FF6D1059404900391049BD9
:10BFB000184607B05DF8044B704710B487B0019085
:10BFC0000091019B009A53E8004F04EB020043E804
:10BFD000000191F0000FF6D1059404900391059BA8
:10BFE000184607B05DF8044B704710B487B0019055
:10BFF0000091019B009A53E8004F04EB020043E8D4
:10C00000000191F0000FF6D1059404900391049B78
:10C01000184607B05DF8044B704710B487B0019024
:10C020000091019B009A53E8004FA4EB020043E803
:10C03000000191F0000FF6D1059404900391049B48
:10C04000184607B05DF8044B704700B583B0019007
:10C0500001210198FFF751FF0346184603B05DF830
:10C0600004FB00B583B0019001210198FFF75DFF4B
:10C070000346184603B05DF804FB00B583B0019099
:10C0800000210198FFF769FF0346184603B05DF8E9
:10C0900004FB00B583B0019000210198FFF775FF04
:10C0A0000346184603B05DF804FB000000B583B0FA
:10C0B00001900B468DF80330019B002B03D10849FA
:10C0C000E82008F053FB019BDA689DF803300199E2
:10C0D000098A01FB03F31344184603B05DF804FB1F
:10C0E000C082040000B583B001900091019B002B39
:10C0F00003D10849F52008F039FB009B019AD2686A
:10C100009B1A019A128AB3FBF2F3DBB2184603B012
:10C110005DF804FBC082040000B585B00190019B6E
:10C12000002B01D10E234CE0019B1B68002B03D197
:10C130002649FF2008F01AFB019B5B68002B04D105
:10C1400022494FF4807008F011FB019B9B68002B83
:10C1500004D11E4940F2011008F008FB019BDB6886
:10C16000002B04D119494FF4817008F0FFFA019BAC
:10C170001B8A002B04D1154940F2031008F0F6FA8F
:10C18000019B9A68019B5B68D31A8DF80F30019B65
:10C190001B68019A52681A6007E0019B1A681368CD
:10C1A000591C11609DF80F201A709DF80F305A1E0F
:10C1B0008DF80F20002BF0D1019B1B6800221A7113
:10C1C0000023184605B05DF804FB00BFC0820400E0
:10C1D00000B585B00190019B002B04D11F494FF49D
:10C1E000927008F0C3FA0023039300238DF80A30FD
:10C1F0000DF10A031846FCF7DFFE019B1B681A6865
:10C20000019B5B689A421FD9019B1B681A68013A1F
:10C210001A601B681B7819460198FFF747FF0390C7
:10C22000019B9A68019B1B681B68D31A8DF80B3021
:10C23000019B1B681B799DF80B209A4204D9019B36
:10C240001B689DF80B201A719DF80A301846FCF700
:10C25000C9FE039B184605B05DF804FBC0820400CC
:10C2600010B584B001900091019B002B04D11549B9
:10C2700040F2471008F07AFA009B002B04D11149D4
:10C280004FF4A47008F072FA009B039300238DF81A
:10C290000B300DF10B031846FCF78EFE019B1B685B
:10C2A0001C68621C1A6003990198FFF71BFF034684
:10C2B00023709DF80B301846FCF794FE00BF04B0C5
:10C2C00010BD00BFC082040000B583B00190019B87
:10C2D000002B03D10C49312008F048FA019B9B68E0
:10C2E000002B0CD0019B5B69019A1069019A1168BF
:10C2F000019A92689847019B00229A6000E000BF73
:10C3000003B05DF804FB00BF388304000EB400B531
:10C3100084B00190019B002B03D11849422008F002
:10C3200025FA019B5B69002B03D11449432008F0D7
:10C330001DFA019B1B68002B03D11049442008F013
:10C3400015FA019B5B68002B03D10C49452008F0CE
:10C350000DFA059B002B0AD00023039306AB039331
:10C3600003AB1A460599019800F0B8F900E000BF48
:10C3700004B05DF804EB03B0704700BF38830400DD
:10C3800000B583B001900B468DF803309DF8033063
:10C390000A2B03D10D210198FFF7F2FF019B1A68C8
:10C3A000019B9B68581C0199886013449DF80320E9
:10C3B0001A70019B9A68019B5B689A4202D30198AC
:10C3C000FFF782FF00BF03B05DF804FB00B587B044
:10C3D000039002910192009300230593009B03F0C8
:10C3E0000103002B24D00BE0029B01330293059B39
:10C3F000013305939DF8133019460398FFF7C0FFEA
:10C40000029B1B788DF813309DF81330002BEBD175
:10C4100006E0019B013B019320210398FFF7B0FF49
:10C42000019A059B9A422ED9019B002BF1D12AE05B
:10C43000029B002B0BD0029814F0F3FC059006E051
:10C44000019B013B019320210398FFF799FF019A7B
:10C45000059B9A420FD9019B002BF1D10BE0029B67
:10C4600001330293059B013305939DF81330194660
:10C470000398FFF785FF029B1B788DF813309DF81A
:10C480001330002BEBD100BF07B05DF804FB0000B8
:10C4900000B589B00390029101920093029B07932B
:10C4A0000123069307E0079A019BB2FBF3F307937E
:10C4B000069B01330693079A019B9A42F3D2009A96
:10C4C000069B9A4201D9009B06930B9B03F0010344
:10C4D000002B22D10A9B002B1FD00B9B03F00203E1
:10C4E000002B06D0009B002B03D130238DF8173092
:10C4F00002E020238DF8173008E00A9B013B0A93E5
:10C500009DF8173019460398FFF73AFF0A9B002B56
:10C5100003D0069A0A9B9A42EFD301230793009B0C
:10C52000012B03D9009B013B009309E0029A079B72
:10C53000B2FBF3F30493049A019B9A4200D205E004
:10C54000079B019A02FB03F30793E8E7029A079B14
:10C55000B2FBF3F30493049B079A02FB03F3029AE2
:10C56000D31A0293154A049B13441B781946039867
:10C57000FFF706FF079A019BB2FBF3F30793079BB4
:10C58000002BE3D10B9B03F00103002B11D00A9B7E
:10C59000002B0ED006E00A9B013B0A932021039852
:10C5A000FFF7EEFE0A9B002B03D0069A0A9B9A42E5
:10C5B000F1D300BF09B05DF804FB00BF188404008C
:10C5C00000B589B00590049103920293049B002B5F
:10C5D000B8BF5B4206930123079307E0039B069ACB
:10C5E00092FBF3F30693079B01330793039B069A91
:10C5F0009A42F3DA029A079B9A4201D9029B079367
:10C600000A9B002B0AD0049B002B04DB0B9B03F03E
:10C610000403002B02D00A9B013B0A930B9B03F0FF
:10C620000203002B02D0029B002B16D00B9B03F0C1
:10C630000103002B11D10A9B002B0ED006E00A9BB0
:10C64000013B0A9320210598FFF79AFE0A9B002BD5
:10C6500003D0079A0A9B9A42F1D3049B002B07DA76
:10C66000049B5B4204932D210598FFF789FE08E0A7
:10C670000B9B03F00403002B03D02B210598FFF73D
:10C680007FFE0B9B03F00203002B19D00B9B03F0E2
:10C690000103002B14D1029B002B11D10A9B002B0C
:10C6A0000ED006E00A9B013B0A9330210598FFF764
:10C6B00067FE0A9B002B03D0079A0A9B9A42F1D38C
:10C6C00004990B9B01930A9B0093029B039A059884
:10C6D000FFF7DEFE00BF09B05DF804FB00B58FB0C8
:10C6E000059004910392059B002B04D1AD4940F2C3
:10C6F000522008F03BF8059B5B69002B04D1A94947
:10C700004FF4157008F032F8059B1B68002B04D11C
:10C71000A44940F2552008F029F8059B5B68002BDE
:10C7200004D1A04940F2562008F020F8049B002BC9
:10C7300000F09381049B1B788DF83730049B013304
:10C7400004939DF83730002B00F07E819DF8373040
:10C75000252B40F06D8100230A9301230C93049B49
:10C760001B788DF837309DF83730302B0DD0302BBB
:10C770001BDC2B2B11D02D2B17D10A9B43F001036F
:10C780000A93049B0133049312E00A9B43F00203D3
:10C790000A93049B013304930AE00A9B43F00403C9
:10C7A0000A93049B0133049302E000230C9300BF1F
:10C7B0000C9B002BD3D1002309939DF837302A2BF3
:10C7C0000CD1039B1B68191D039A11601B68099A01
:10C7D00013440993049B013304931AE0049B1B78D0
:10C7E0008DF837309DF837302F2B12D99DF8373020
:10C7F000392B0ED8049B01330493099A13469B00EE
:10C8000013445B001A469DF837301344303B0993BC
:10C81000D3E700230B93049B1B788DF837309DF8EA
:10C8200037302E2B1DD1049B01330493049B1B78BE
:10C830008DF837309DF837302F2B12D99DF83730CF
:10C84000392B0ED8049B013304930B9A13469B009B
:10C8500013445B001A469DF837301344303B0B936A
:10C86000E4E7049B1B788DF837309DF837306C2B4C
:10C8700003D09DF83730682B07D1049B0133049314
:10C88000049B1B788DF83730EFE79DF83730252B68
:10C8900000F0C480252BC0F2C680782B00F3C38043
:10C8A000582BC0F2C080583B202B00F2BC8001A264
:10C8B00052F823F0A9C9020027CA020027CA0200C1
:10C8C00027CA020027CA020027CA020027CA02009C
:10C8D00027CA020027CA020027CA020027CA02008C
:10C8E00039C902005BC9020027CA020027CA020038
:10C8F00027CA020027CA02005BC9020027CA020039
:10C9000027CA020027CA020027CA020027CA02005B
:10C9100027CA0200E9C9020027CA020027CA02008A
:10C92000CDC9020027CA02007FC9020027CA02003F
:10C9300027CA0200A9C90200039B1B68191D039A9C
:10C9400011601B680C930C9B8DF81F309DF81F30F5
:10C9500019460598FFF714FD66E0039B1B68191D37
:10C96000039A11601B680C930A9B0193099B009327
:10C970000B9B0A220C990598FFF722FE54E0039BBB
:10C980001B68191D039A11601B680C930C990A9B74
:10C990000193099B00930B9B0A220598FFF778FDF2
:10C9A00042E000BFA4830400039B1B68191D039A87
:10C9B00011601B680C930C990A9B0193099B0093CF
:10C9C0000B9B10220598FFF763FD2DE0039B1B686E
:10C9D000191D039A11601B6808930A9B099A08990C
:10C9E0000598FFF7F3FC1FE0039B1B68191D039AD2
:10C9F00011601B680C9330210598FFF7C1FC78216A
:10CA00000598FFF7BDFC0C990023019308230093C0
:10CA1000082310220598FFF73BFD05E02521059826
:10CA2000FFF7AEFC00E000BF049B0133049305E078
:10CA30009DF8373019460598FFF7A2FC049B1B7838
:10CA4000002B7FF477AE00E000BF059B1B7B002B23
:10CA500004D00598FFF738FC00E000BF0FB05DF888
:10CA600004FB00BF00B587B0059004910392059BBD
:10CA7000002B10D1194A1A4BD31ADB081B0443F0C0
:10CA80000100184A18490E2300930B46174904F079
:10CA9000CAFE0E231DE0049B002B10D10F4A104B41
:10CAA000D31ADB081B0443F00100114A0E490E2380
:10CAB00000930B460D4904F0B6FE0E2309E0059BDA
:10CAC000049A1A60059B1B681B6803990598984790
:10CAD0000346184607B05DF804FB00BFEC7C040079
